{
  "_format": "hh-sol-artifact-1",
  "contractName": "ThreatAnalysis",
  "sourceName": "contracts/ThreatAnalysis.sol",
  "abi": [
    {
      "inputs": [],
      "stateMutability": "nonpayable",
      "type": "constructor"
    },
    {
      "anonymous": false,
      "inputs": [
        {
          "indexed": false,
          "internalType": "string",
          "name": "threatId",
          "type": "string"
        },
        {
          "indexed": false,
          "internalType": "string",
          "name": "title",
          "type": "string"
        },
        {
          "indexed": false,
          "internalType": "uint256",
          "name": "timestamp",
          "type": "uint256"
        }
      ],
      "name": "AnalysisAdded",
      "type": "event"
    },
    {
      "anonymous": false,
      "inputs": [
        {
          "indexed": false,
          "internalType": "string",
          "name": "threatId",
          "type": "string"
        },
        {
          "indexed": false,
          "internalType": "uint256",
          "name": "timestamp",
          "type": "uint256"
        }
      ],
      "name": "AnalysisUpdated",
      "type": "event"
    },
    {
      "anonymous": false,
      "inputs": [
        {
          "indexed": false,
          "internalType": "string",
          "name": "threatId",
          "type": "string"
        },
        {
          "indexed": false,
          "internalType": "bool",
          "name": "verified",
          "type": "bool"
        }
      ],
      "name": "AnalysisVerified",
      "type": "event"
    },
    {
      "anonymous": false,
      "inputs": [
        {
          "indexed": true,
          "internalType": "address",
          "name": "previousOwner",
          "type": "address"
        },
        {
          "indexed": true,
          "internalType": "address",
          "name": "newOwner",
          "type": "address"
        }
      ],
      "name": "OwnershipTransferred",
      "type": "event"
    },
    {
      "anonymous": false,
      "inputs": [
        {
          "indexed": false,
          "internalType": "address",
          "name": "account",
          "type": "address"
        }
      ],
      "name": "Paused",
      "type": "event"
    },
    {
      "anonymous": false,
      "inputs": [
        {
          "indexed": false,
          "internalType": "address",
          "name": "account",
          "type": "address"
        }
      ],
      "name": "Unpaused",
      "type": "event"
    },
    {
      "inputs": [
        {
          "internalType": "string",
          "name": "threatId",
          "type": "string"
        },
        {
          "internalType": "string",
          "name": "title",
          "type": "string"
        },
        {
          "internalType": "string",
          "name": "description",
          "type": "string"
        },
        {
          "internalType": "string",
          "name": "severity",
          "type": "string"
        },
        {
          "internalType": "uint256",
          "name": "confidence",
          "type": "uint256"
        },
        {
          "internalType": "string",
          "name": "aiSummary",
          "type": "string"
        },
        {
          "internalType": "string[]",
          "name": "indicators",
          "type": "string[]"
        },
        {
          "internalType": "string[]",
          "name": "recommendations",
          "type": "string[]"
        }
      ],
      "name": "addAnalysis",
      "outputs": [],
      "stateMutability": "nonpayable",
      "type": "function"
    },
    {
      "inputs": [
        {
          "internalType": "string",
          "name": "",
          "type": "string"
        }
      ],
      "name": "analyses",
      "outputs": [
        {
          "internalType": "string",
          "name": "threatId",
          "type": "string"
        },
        {
          "internalType": "string",
          "name": "title",
          "type": "string"
        },
        {
          "internalType": "string",
          "name": "description",
          "type": "string"
        },
        {
          "internalType": "string",
          "name": "severity",
          "type": "string"
        },
        {
          "internalType": "uint256",
          "name": "confidence",
          "type": "uint256"
        },
        {
          "internalType": "bool",
          "name": "verified",
          "type": "bool"
        },
        {
          "internalType": "string",
          "name": "aiSummary",
          "type": "string"
        },
        {
          "internalType": "uint256",
          "name": "timestamp",
          "type": "uint256"
        }
      ],
      "stateMutability": "view",
      "type": "function"
    },
    {
      "inputs": [],
      "name": "getAllThreatIds",
      "outputs": [
        {
          "internalType": "string[]",
          "name": "",
          "type": "string[]"
        }
      ],
      "stateMutability": "view",
      "type": "function"
    },
    {
      "inputs": [
        {
          "internalType": "string",
          "name": "threatId",
          "type": "string"
        }
      ],
      "name": "getAnalysis",
      "outputs": [
        {
          "internalType": "string",
          "name": "title",
          "type": "string"
        },
        {
          "internalType": "string",
          "name": "description",
          "type": "string"
        },
        {
          "internalType": "string",
          "name": "severity",
          "type": "string"
        },
        {
          "internalType": "uint256",
          "name": "confidence",
          "type": "uint256"
        },
        {
          "internalType": "bool",
          "name": "verified",
          "type": "bool"
        },
        {
          "internalType": "string",
          "name": "aiSummary",
          "type": "string"
        },
        {
          "internalType": "uint256",
          "name": "timestamp",
          "type": "uint256"
        },
        {
          "internalType": "string[]",
          "name": "indicators",
          "type": "string[]"
        },
        {
          "internalType": "string[]",
          "name": "recommendations",
          "type": "string[]"
        }
      ],
      "stateMutability": "view",
      "type": "function"
    },
    {
      "inputs": [],
      "name": "owner",
      "outputs": [
        {
          "internalType": "address",
          "name": "",
          "type": "address"
        }
      ],
      "stateMutability": "view",
      "type": "function"
    },
    {
      "inputs": [],
      "name": "pause",
      "outputs": [],
      "stateMutability": "nonpayable",
      "type": "function"
    },
    {
      "inputs": [],
      "name": "paused",
      "outputs": [
        {
          "internalType": "bool",
          "name": "",
          "type": "bool"
        }
      ],
      "stateMutability": "view",
      "type": "function"
    },
    {
      "inputs": [],
      "name": "renounceOwnership",
      "outputs": [],
      "stateMutability": "nonpayable",
      "type": "function"
    },
    {
      "inputs": [
        {
          "internalType": "uint256",
          "name": "",
          "type": "uint256"
        }
      ],
      "name": "threatIds",
      "outputs": [
        {
          "internalType": "string",
          "name": "",
          "type": "string"
        }
      ],
      "stateMutability": "view",
      "type": "function"
    },
    {
      "inputs": [
        {
          "internalType": "address",
          "name": "newOwner",
          "type": "address"
        }
      ],
      "name": "transferOwnership",
      "outputs": [],
      "stateMutability": "nonpayable",
      "type": "function"
    },
    {
      "inputs": [],
      "name": "unpause",
      "outputs": [],
      "stateMutability": "nonpayable",
      "type": "function"
    },
    {
      "inputs": [
        {
          "internalType": "string",
          "name": "threatId",
          "type": "string"
        },
        {
          "internalType": "bool",
          "name": "verified",
          "type": "bool"
        }
      ],
      "name": "verifyAnalysis",
      "outputs": [],
      "stateMutability": "nonpayable",
      "type": "function"
    }
  ],
  "bytecode": "0x60806040523480156200001157600080fd5b506200001d336200003a565b6000805460ff60a01b19169055620000346200008a565b62000148565b600080546001600160a01b038381166001600160a01b0319831681178455604051919092169283917f8be0079c531659141344cd1fd0a4f28419497f9722a3daafe3b4186f6b6457e09190a35050565b62000094620000ed565b6000805460ff60a01b1916600160a01b1790557f62e78cea01bee320cd4e420270b5ea74000d11b0c9f74754ebdbfc544b05a258620000d03390565b6040516001600160a01b03909116815260200160405180910390a1565b62000101600054600160a01b900460ff1690565b15620001465760405162461bcd60e51b815260206004820152601060248201526f14185d5cd8589b194e881c185d5cd95960821b604482015260640160405180910390fd5b565b6118e980620001586000396000f3fe608060405234801561001057600080fd5b50600436106100b45760003560e01c8063715018a611610071578063715018a61461016d5780638456cb59146101755780638acdf5631461017d5780638da5cb5b14610190578063cf3553ae146101ab578063f2fde38b146101be57600080fd5b8063097ceea6146100b95780630bf62934146100ea5780631c30da511461010a5780633f4ba83a146101315780635c975abb1461013b5780636f616ab514610158575b600080fd5b6100cc6100c7366004611260565b6101d1565b6040516100e199989796959493929190611345565b60405180910390f35b6100fd6100f83660046113e2565b61068b565b6040516100e191906113fb565b61011d610118366004611260565b610737565b6040516100e1989796959493929190611415565b610139610a32565b005b600054600160a01b900460ff1660405190151581526020016100e1565b610160610a44565b6040516100e1919061149d565b610139610b1d565b610139610b2f565b61013961018b36600461154f565b610b3f565b6000546040516001600160a01b0390911681526020016100e1565b6101396101b9366004611674565b610d9f565b6101396101cc3660046116cb565b610e94565b606080606060008060606000606080600060018b6040516101f291906116f4565b90815260200160405180910390209050600081600001805461021390611710565b9050116102615760405162461bcd60e51b8152602060048201526017602482015276105b985b1e5cda5cc8191bd95cc81b9bdd08195e1a5cdd604a1b60448201526064015b60405180910390fd5b80600101816002018260030183600401548460050160009054906101000a900460ff1685600601866007015487600801886009018880546102a190611710565b80601f01602080910402602001604051908101604052809291908181526020018280546102cd90611710565b801561031a5780601f106102ef5761010080835404028352916020019161031a565b820191906000526020600020905b8154815290600101906020018083116102fd57829003601f168201915b5050505050985087805461032d90611710565b80601f016020809104026020016040519081016040528092919081815260200182805461035990611710565b80156103a65780601f1061037b576101008083540402835291602001916103a6565b820191906000526020600020905b81548152906001019060200180831161038957829003601f168201915b505050505097508680546103b990611710565b80601f01602080910402602001604051908101604052809291908181526020018280546103e590611710565b80156104325780601f1061040757610100808354040283529160200191610432565b820191906000526020600020905b81548152906001019060200180831161041557829003601f168201915b5050505050965083805461044590611710565b80601f016020809104026020016040519081016040528092919081815260200182805461047190611710565b80156104be5780601f10610493576101008083540402835291602001916104be565b820191906000526020600020905b8154815290600101906020018083116104a157829003601f168201915b5050505050935081805480602002602001604051908101604052809291908181526020016000905b8282101561059257838290600052602060002001805461050590611710565b80601f016020809104026020016040519081016040528092919081815260200182805461053190611710565b801561057e5780601f106105535761010080835404028352916020019161057e565b820191906000526020600020905b81548152906001019060200180831161056157829003601f168201915b5050505050815260200190600101906104e6565b50505050915080805480602002602001604051908101604052809291908181526020016000905b828210156106655783829060005260206000200180546105d890611710565b80601f016020809104026020016040519081016040528092919081815260200182805461060490611710565b80156106515780601f1061062657610100808354040283529160200191610651565b820191906000526020600020905b81548152906001019060200180831161063457829003601f168201915b5050505050815260200190600101906105b9565b505050509050995099509950995099509950995099509950509193959799909294969850565b6002818154811061069b57600080fd5b9060005260206000200160009150905080546106b690611710565b80601f01602080910402602001604051908101604052809291908181526020018280546106e290611710565b801561072f5780601f106107045761010080835404028352916020019161072f565b820191906000526020600020905b81548152906001019060200180831161071257829003601f168201915b505050505081565b805160208183018101805160018252928201919093012091528054819061075d90611710565b80601f016020809104026020016040519081016040528092919081815260200182805461078990611710565b80156107d65780601f106107ab576101008083540402835291602001916107d6565b820191906000526020600020905b8154815290600101906020018083116107b957829003601f168201915b5050505050908060010180546107eb90611710565b80601f016020809104026020016040519081016040528092919081815260200182805461081790611710565b80156108645780601f1061083957610100808354040283529160200191610864565b820191906000526020600020905b81548152906001019060200180831161084757829003601f168201915b50505050509080600201805461087990611710565b80601f01602080910402602001604051908101604052809291908181526020018280546108a590611710565b80156108f25780601f106108c7576101008083540402835291602001916108f2565b820191906000526020600020905b8154815290600101906020018083116108d557829003601f168201915b50505050509080600301805461090790611710565b80601f016020809104026020016040519081016040528092919081815260200182805461093390611710565b80156109805780601f1061095557610100808354040283529160200191610980565b820191906000526020600020905b81548152906001019060200180831161096357829003601f168201915b50505050600483015460058401546006850180549495929460ff9092169350906109a990611710565b80601f01602080910402602001604051908101604052809291908181526020018280546109d590611710565b8015610a225780601f106109f757610100808354040283529160200191610a22565b820191906000526020600020905b815481529060010190602001808311610a0557829003601f168201915b5050505050908060070154905088565b610a3a610f0d565b610a42610f67565b565b60606002805480602002602001604051908101604052809291908181526020016000905b82821015610b14578382906000526020600020018054610a8790611710565b80601f0160208091040260200160405190810160405280929190818152602001828054610ab390611710565b8015610b005780601f10610ad557610100808354040283529160200191610b00565b820191906000526020600020905b815481529060010190602001808311610ae357829003601f168201915b505050505081526020019060010190610a68565b50505050905090565b610b25610f0d565b610a426000610fbc565b610b37610f0d565b610a4261100c565b610b4761104f565b610b4f610f0d565b6000885111610ba05760405162461bcd60e51b815260206004820152601960248201527f5468726561742049442063616e6e6f7420626520656d707479000000000000006044820152606401610258565b6000875111610be95760405162461bcd60e51b81526020600482015260156024820152745469746c652063616e6e6f7420626520656d70747960581b6044820152606401610258565b60405180610140016040528089815260200188815260200187815260200186815260200185815260200160001515815260200184815260200142815260200183815260200182815250600189604051610c4291906116f4565b90815260405190819003602001902081518190610c5f9082611799565b5060208201516001820190610c749082611799565b5060408201516002820190610c899082611799565b5060608201516003820190610c9e9082611799565b506080820151600482015560a082015160058201805460ff191691151591909117905560c08201516006820190610cd59082611799565b5060e082015160078201556101008201518051610cfc9160088401916020909101906110ec565b506101208201518051610d199160098401916020909101906110ec565b5050600280546001810182556000919091527f405787fa12a823e0f2b7631cc41b3ba8828b3321ca811111fa75cd3aa3bb5ace019050610d598982611799565b507fa5c9b2ddb416c06b873e68027ba07758974316ee0149970e9839026270dc3a3d888842604051610d8d93929190611859565b60405180910390a15050505050505050565b610da761104f565b610daf610f0d565b6000600183604051610dc191906116f4565b9081526040519081900360200190208054610ddb90611710565b905011610e245760405162461bcd60e51b8152602060048201526017602482015276105b985b1e5cda5cc8191bd95cc81b9bdd08195e1a5cdd604a1b6044820152606401610258565b80600183604051610e3591906116f4565b908152604051908190036020018120600501805492151560ff19909316929092179091557f9ef87238024328c1798e8b525a8e19f1cfbfaf783bcc46ee6913def9e03c93f690610e88908490849061188f565b60405180910390a15050565b610e9c610f0d565b6001600160a01b038116610f015760405162461bcd60e51b815260206004820152602660248201527f4f776e61626c653a206e6577206f776e657220697320746865207a65726f206160448201526564647265737360d01b6064820152608401610258565b610f0a81610fbc565b50565b6000546001600160a01b03163314610a425760405162461bcd60e51b815260206004820181905260248201527f4f776e61626c653a2063616c6c6572206973206e6f7420746865206f776e65726044820152606401610258565b610f6f61109c565b6000805460ff60a01b191690557f5db9ee0a495bf2e6ff9c91a7834c1ba4fdd244a5e8aa4e537bd38aeae4b073aa335b6040516001600160a01b03909116815260200160405180910390a1565b600080546001600160a01b038381166001600160a01b0319831681178455604051919092169283917f8be0079c531659141344cd1fd0a4f28419497f9722a3daafe3b4186f6b6457e09190a35050565b61101461104f565b6000805460ff60a01b1916600160a01b1790557f62e78cea01bee320cd4e420270b5ea74000d11b0c9f74754ebdbfc544b05a258610f9f3390565b600054600160a01b900460ff1615610a425760405162461bcd60e51b815260206004820152601060248201526f14185d5cd8589b194e881c185d5cd95960821b6044820152606401610258565b600054600160a01b900460ff16610a425760405162461bcd60e51b815260206004820152601460248201527314185d5cd8589b194e881b9bdd081c185d5cd95960621b6044820152606401610258565b828054828255906000526020600020908101928215611132579160200282015b8281111561113257825182906111229082611799565b509160200191906001019061110c565b5061113e929150611142565b5090565b8082111561113e576000611156828261115f565b50600101611142565b50805461116b90611710565b6000825580601f1061117b575050565b601f016020900490600052602060002090810190610f0a91905b8082111561113e5760008155600101611195565b634e487b7160e01b600052604160045260246000fd5b604051601f8201601f1916810167ffffffffffffffff811182821017156111e8576111e86111a9565b604052919050565b600082601f83011261120157600080fd5b813567ffffffffffffffff81111561121b5761121b6111a9565b61122e601f8201601f19166020016111bf565b81815284602083860101111561124357600080fd5b816020850160208301376000918101602001919091529392505050565b60006020828403121561127257600080fd5b813567ffffffffffffffff81111561128957600080fd5b611295848285016111f0565b949350505050565b60005b838110156112b85781810151838201526020016112a0565b50506000910152565b600081518084526112d981602086016020860161129d565b601f01601f19169290920160200192915050565b600082825180855260208086019550808260051b84010181860160005b8481101561133857601f198684030189526113268383516112c1565b9884019892509083019060010161130a565b5090979650505050505050565b60006101208083526113598184018d6112c1565b9050828103602084015261136d818c6112c1565b90508281036040840152611381818b6112c1565b9050886060840152871515608084015282810360a08401526113a381886112c1565b90508560c084015282810360e08401526113bd81866112ed565b90508281036101008401526113d281856112ed565b9c9b505050505050505050505050565b6000602082840312156113f457600080fd5b5035919050565b60208152600061140e60208301846112c1565b9392505050565b60006101008083526114298184018c6112c1565b9050828103602084015261143d818b6112c1565b90508281036040840152611451818a6112c1565b9050828103606084015261146581896112c1565b905086608084015285151560a084015282810360c084015261148781866112c1565b9150508260e08301529998505050505050505050565b60208152600061140e60208301846112ed565b600082601f8301126114c157600080fd5b8135602067ffffffffffffffff808311156114de576114de6111a9565b8260051b6114ed8382016111bf565b938452858101830193838101908886111561150757600080fd5b84880192505b85831015611543578235848111156115255760008081fd5b6115338a87838c01016111f0565b835250918401919084019061150d565b98975050505050505050565b600080600080600080600080610100898b03121561156c57600080fd5b883567ffffffffffffffff8082111561158457600080fd5b6115908c838d016111f0565b995060208b01359150808211156115a657600080fd5b6115b28c838d016111f0565b985060408b01359150808211156115c857600080fd5b6115d48c838d016111f0565b975060608b01359150808211156115ea57600080fd5b6115f68c838d016111f0565b965060808b0135955060a08b013591508082111561161357600080fd5b61161f8c838d016111f0565b945060c08b013591508082111561163557600080fd5b6116418c838d016114b0565b935060e08b013591508082111561165757600080fd5b506116648b828c016114b0565b9150509295985092959890939650565b6000806040838503121561168757600080fd5b823567ffffffffffffffff81111561169e57600080fd5b6116aa858286016111f0565b925050602083013580151581146116c057600080fd5b809150509250929050565b6000602082840312156116dd57600080fd5b81356001600160a01b038116811461140e57600080fd5b6000825161170681846020870161129d565b9190910192915050565b600181811c9082168061172457607f821691505b60208210810361174457634e487b7160e01b600052602260045260246000fd5b50919050565b601f82111561179457600081815260208120601f850160051c810160208610156117715750805b601f850160051c820191505b818110156117905782815560010161177d565b5050505b505050565b815167ffffffffffffffff8111156117b3576117b36111a9565b6117c7816117c18454611710565b8461174a565b602080601f8311600181146117fc57600084156117e45750858301515b600019600386901b1c1916600185901b178555611790565b600085815260208120601f198616915b8281101561182b5788860151825594840194600190910190840161180c565b50858210156118495787850151600019600388901b60f8161c191681555b5050505050600190811b01905550565b60608152600061186c60608301866112c1565b828103602084015261187e81866112c1565b915050826040830152949350505050565b6040815260006118a260408301856112c1565b90508215156020830152939250505056fea264697066735822122042a3392cec6d80f9cd4215ab9554409b56f7c5257fcfaabc23a6b9600677bac264736f6c63430008130033",
  "linkReferences": {},
  "deployedLinkReferences": {}
}